{
  "_format": "hh-sol-artifact-1",
  "contractName": "AxleToken",
  "sourceName": "contracts/AxleToken.sol",
  "abi": [
    {
      "inputs": [
        {
          "internalType": "uint256",
          "name": "cap",
          "type": "uint256"
        },
        {
          "internalType": "uint256",
          "name": "reward",
          "type": "uint256"
        }
      ],
      "stateMutability": "nonpayable",
      "type": "constructor"
    },
    {
      "anonymous": false,
      "inputs": [
        {
          "indexed": true,
          "internalType": "address",
          "name": "owner",
          "type": "address"
        },
        {
          "indexed": true,
          "internalType": "address",
          "name": "spender",
          "type": "address"
        },
        {
          "indexed": false,
          "internalType": "uint256",
          "name": "value",
          "type": "uint256"
        }
      ],
      "name": "Approval",
      "type": "event"
    },
    {
      "anonymous": false,
      "inputs": [
        {
          "indexed": true,
          "internalType": "address",
          "name": "from",
          "type": "address"
        },
        {
          "indexed": true,
          "internalType": "address",
          "name": "to",
          "type": "address"
        },
        {
          "indexed": false,
          "internalType": "uint256",
          "name": "value",
          "type": "uint256"
        }
      ],
      "name": "Transfer",
      "type": "event"
    },
    {
      "inputs": [
        {
          "internalType": "address",
          "name": "owner",
          "type": "address"
        },
        {
          "internalType": "address",
          "name": "spender",
          "type": "address"
        }
      ],
      "name": "allowance",
      "outputs": [
        {
          "internalType": "uint256",
          "name": "",
          "type": "uint256"
        }
      ],
      "stateMutability": "view",
      "type": "function"
    },
    {
      "inputs": [
        {
          "internalType": "address",
          "name": "spender",
          "type": "address"
        },
        {
          "internalType": "uint256",
          "name": "amount",
          "type": "uint256"
        }
      ],
      "name": "approve",
      "outputs": [
        {
          "internalType": "bool",
          "name": "",
          "type": "bool"
        }
      ],
      "stateMutability": "nonpayable",
      "type": "function"
    },
    {
      "inputs": [
        {
          "internalType": "address",
          "name": "account",
          "type": "address"
        }
      ],
      "name": "balanceOf",
      "outputs": [
        {
          "internalType": "uint256",
          "name": "",
          "type": "uint256"
        }
      ],
      "stateMutability": "view",
      "type": "function"
    },
    {
      "inputs": [],
      "name": "blockReward",
      "outputs": [
        {
          "internalType": "uint256",
          "name": "",
          "type": "uint256"
        }
      ],
      "stateMutability": "view",
      "type": "function"
    },
    {
      "inputs": [
        {
          "internalType": "uint256",
          "name": "amount",
          "type": "uint256"
        }
      ],
      "name": "burn",
      "outputs": [],
      "stateMutability": "nonpayable",
      "type": "function"
    },
    {
      "inputs": [
        {
          "internalType": "address",
          "name": "account",
          "type": "address"
        },
        {
          "internalType": "uint256",
          "name": "amount",
          "type": "uint256"
        }
      ],
      "name": "burnFrom",
      "outputs": [],
      "stateMutability": "nonpayable",
      "type": "function"
    },
    {
      "inputs": [],
      "name": "cap",
      "outputs": [
        {
          "internalType": "uint256",
          "name": "",
          "type": "uint256"
        }
      ],
      "stateMutability": "view",
      "type": "function"
    },
    {
      "inputs": [],
      "name": "changeBool",
      "outputs": [],
      "stateMutability": "nonpayable",
      "type": "function"
    },
    {
      "inputs": [],
      "name": "decimals",
      "outputs": [
        {
          "internalType": "uint8",
          "name": "",
          "type": "uint8"
        }
      ],
      "stateMutability": "view",
      "type": "function"
    },
    {
      "inputs": [
        {
          "internalType": "address",
          "name": "spender",
          "type": "address"
        },
        {
          "internalType": "uint256",
          "name": "subtractedValue",
          "type": "uint256"
        }
      ],
      "name": "decreaseAllowance",
      "outputs": [
        {
          "internalType": "bool",
          "name": "",
          "type": "bool"
        }
      ],
      "stateMutability": "nonpayable",
      "type": "function"
    },
    {
      "inputs": [
        {
          "internalType": "address",
          "name": "spender",
          "type": "address"
        },
        {
          "internalType": "uint256",
          "name": "addedValue",
          "type": "uint256"
        }
      ],
      "name": "increaseAllowance",
      "outputs": [
        {
          "internalType": "bool",
          "name": "",
          "type": "bool"
        }
      ],
      "stateMutability": "nonpayable",
      "type": "function"
    },
    {
      "inputs": [],
      "name": "name",
      "outputs": [
        {
          "internalType": "string",
          "name": "",
          "type": "string"
        }
      ],
      "stateMutability": "view",
      "type": "function"
    },
    {
      "inputs": [],
      "name": "owner",
      "outputs": [
        {
          "internalType": "address payable",
          "name": "",
          "type": "address"
        }
      ],
      "stateMutability": "view",
      "type": "function"
    },
    {
      "inputs": [
        {
          "internalType": "uint256",
          "name": "reward",
          "type": "uint256"
        }
      ],
      "name": "setBlockReward",
      "outputs": [],
      "stateMutability": "nonpayable",
      "type": "function"
    },
    {
      "inputs": [],
      "name": "symbol",
      "outputs": [
        {
          "internalType": "string",
          "name": "",
          "type": "string"
        }
      ],
      "stateMutability": "view",
      "type": "function"
    },
    {
      "inputs": [],
      "name": "totalSupply",
      "outputs": [
        {
          "internalType": "uint256",
          "name": "",
          "type": "uint256"
        }
      ],
      "stateMutability": "view",
      "type": "function"
    },
    {
      "inputs": [
        {
          "internalType": "address",
          "name": "to",
          "type": "address"
        },
        {
          "internalType": "uint256",
          "name": "amount",
          "type": "uint256"
        }
      ],
      "name": "transfer",
      "outputs": [
        {
          "internalType": "bool",
          "name": "",
          "type": "bool"
        }
      ],
      "stateMutability": "nonpayable",
      "type": "function"
    },
    {
      "inputs": [
        {
          "internalType": "address",
          "name": "from",
          "type": "address"
        },
        {
          "internalType": "address",
          "name": "to",
          "type": "address"
        },
        {
          "internalType": "uint256",
          "name": "amount",
          "type": "uint256"
        }
      ],
      "name": "transferFrom",
      "outputs": [
        {
          "internalType": "bool",
          "name": "",
          "type": "bool"
        }
      ],
      "stateMutability": "nonpayable",
      "type": "function"
    },
    {
      "inputs": [
        {
          "internalType": "address",
          "name": "sender",
          "type": "address"
        },
        {
          "internalType": "address",
          "name": "_recipient",
          "type": "address"
        },
        {
          "internalType": "uint256",
          "name": "_amount",
          "type": "uint256"
        }
      ],
      "name": "transferToken",
      "outputs": [
        {
          "internalType": "bool",
          "name": "",
          "type": "bool"
        }
      ],
      "stateMutability": "nonpayable",
      "type": "function"
    }
  ],
  "bytecode": "0x60a060405260126009553480156200001657600080fd5b5060405162002e1a38038062002e1a83398181016040528101906200003c91906200060f565b6200004c6200022060201b60201c565b600a6200005a9190620007e6565b8262000067919062000837565b6040518060400160405280600981526020017f41786c65546f6b656e00000000000000000000000000000000000000000000008152506040518060400160405280600481526020017f41584c45000000000000000000000000000000000000000000000000000000008152508160039081620000e4919062000af2565b508060049081620000f6919062000af2565b505050600081116200013f576040517f08c379a0000000000000000000000000000000000000000000000000000000008152600401620001369062000c3a565b60405180910390fd5b80608081815250505033600560006101000a81548173ffffffffffffffffffffffffffffffffffffffff021916908373ffffffffffffffffffffffffffffffffffffffff160217905550620001996200022060201b60201c565b600a620001a79190620007e6565b81620001b4919062000837565b905062000218600560009054906101000a900473ffffffffffffffffffffffffffffffffffffffff16620001ed6200022060201b60201c565b600a620001fb9190620007e6565b6301312d006200020c919062000837565b6200022960201b60201c565b505062000da9565b60006012905090565b62000239620002ba60201b60201c565b816200024f620002c460201b620004911760201c565b6200025b919062000c5c565b11156200029f576040517f08c379a0000000000000000000000000000000000000000000000000000000008152600401620002969062000ce7565b60405180910390fd5b620002b68282620002ce60201b620009681760201c565b5050565b6000608051905090565b6000600254905090565b620002de620002ba60201b60201c565b81620002f4620002c460201b620004911760201c565b62000300919062000c5c565b111562000344576040517f08c379a00000000000000000000000000000000000000000000000000000000081526004016200033b9062000ce7565b60405180910390fd5b6200035b82826200035f60201b620009d21760201c565b5050565b600073ffffffffffffffffffffffffffffffffffffffff168273ffffffffffffffffffffffffffffffffffffffff1603620003d1576040517f08c379a0000000000000000000000000000000000000000000000000000000008152600401620003c89062000d59565b60405180910390fd5b620003e560008383620004d760201b60201c565b8060026000828254620003f9919062000c5c565b92505081905550806000808473ffffffffffffffffffffffffffffffffffffffff1673ffffffffffffffffffffffffffffffffffffffff168152602001908152602001600020600082825462000450919062000c5c565b925050819055508173ffffffffffffffffffffffffffffffffffffffff16600073ffffffffffffffffffffffffffffffffffffffff167fddf252ad1be2c89b69c2b068fc378daa952ba7f163c4a11628f55a4df523b3ef83604051620004b7919062000d8c565b60405180910390a3620004d360008383620005af60201b60201c565b5050565b600073ffffffffffffffffffffffffffffffffffffffff168373ffffffffffffffffffffffffffffffffffffffff16141580156200054157504173ffffffffffffffffffffffffffffffffffffffff168273ffffffffffffffffffffffffffffffffffffffff1614155b80156200057b5750600073ffffffffffffffffffffffffffffffffffffffff164173ffffffffffffffffffffffffffffffffffffffff1614155b15620005925762000591620005b460201b60201c565b5b620005aa838383620005ca60201b62000b311760201c565b505050565b505050565b620005c8416006546200022960201b60201c565b565b505050565b600080fd5b6000819050919050565b620005e981620005d4565b8114620005f557600080fd5b50565b6000815190506200060981620005de565b92915050565b60008060408385031215620006295762000628620005cf565b5b60006200063985828601620005f8565b92505060206200064c85828601620005f8565b9150509250929050565b7f4e487b7100000000000000000000000000000000000000000000000000000000600052601160045260246000fd5b60008160011c9050919050565b6000808291508390505b6001851115620006e457808604811115620006bc57620006bb62000656565b5b6001851615620006cc5780820291505b8081029050620006dc8562000685565b94506200069c565b94509492505050565b600082620006ff5760019050620007d2565b816200070f5760009050620007d2565b8160018114620007285760028114620007335762000769565b6001915050620007d2565b60ff84111562000748576200074762000656565b5b8360020a91508482111562000762576200076162000656565b5b50620007d2565b5060208310610133831016604e8410600b8410161715620007a35782820a9050838111156200079d576200079c62000656565b5b620007d2565b620007b2848484600162000692565b92509050818404811115620007cc57620007cb62000656565b5b81810290505b9392505050565b600060ff82169050919050565b6000620007f382620005d4565b91506200080083620007d9565b92506200082f7fffffffffffffffffffffffffffffffffffffffffffffffffffffffffffffffff8484620006ed565b905092915050565b60006200084482620005d4565b91506200085183620005d4565b92508282026200086181620005d4565b915082820484148315176200087b576200087a62000656565b5b5092915050565b600081519050919050565b7f4e487b7100000000000000000000000000000000000000000000000000000000600052604160045260246000fd5b7f4e487b7100000000000000000000000000000000000000000000000000000000600052602260045260246000fd5b600060028204905060018216806200090457607f821691505b6020821081036200091a5762000919620008bc565b5b50919050565b60008190508160005260206000209050919050565b60006020601f8301049050919050565b600082821b905092915050565b600060088302620009847fffffffffffffffffffffffffffffffffffffffffffffffffffffffffffffffff8262000945565b62000990868362000945565b95508019841693508086168417925050509392505050565b6000819050919050565b6000620009d3620009cd620009c784620005d4565b620009a8565b620005d4565b9050919050565b6000819050919050565b620009ef83620009b2565b62000a07620009fe82620009da565b84845462000952565b825550505050565b600090565b62000a1e62000a0f565b62000a2b818484620009e4565b505050565b5b8181101562000a535762000a4760008262000a14565b60018101905062000a31565b5050565b601f82111562000aa25762000a6c8162000920565b62000a778462000935565b8101602085101562000a87578190505b62000a9f62000a968562000935565b83018262000a30565b50505b505050565b600082821c905092915050565b600062000ac76000198460080262000aa7565b1980831691505092915050565b600062000ae2838362000ab4565b9150826002028217905092915050565b62000afd8262000882565b67ffffffffffffffff81111562000b195762000b186200088d565b5b62000b258254620008eb565b62000b3282828562000a57565b600060209050601f83116001811462000b6a576000841562000b55578287015190505b62000b61858262000ad4565b86555062000bd1565b601f19841662000b7a8662000920565b60005b8281101562000ba45784890151825560018201915060208501945060208101905062000b7d565b8683101562000bc4578489015162000bc0601f89168262000ab4565b8355505b6001600288020188555050505b505050505050565b600082825260208201905092915050565b7f45524332304361707065643a2063617020697320300000000000000000000000600082015250565b600062000c2260158362000bd9565b915062000c2f8262000bea565b602082019050919050565b6000602082019050818103600083015262000c558162000c13565b9050919050565b600062000c6982620005d4565b915062000c7683620005d4565b925082820190508082111562000c915762000c9062000656565b5b92915050565b7f45524332304361707065643a2063617020657863656564656400000000000000600082015250565b600062000ccf60198362000bd9565b915062000cdc8262000c97565b602082019050919050565b6000602082019050818103600083015262000d028162000cc0565b9050919050565b7f45524332303a206d696e7420746f20746865207a65726f206164647265737300600082015250565b600062000d41601f8362000bd9565b915062000d4e8262000d09565b602082019050919050565b6000602082019050818103600083015262000d748162000d32565b9050919050565b62000d8681620005d4565b82525050565b600060208201905062000da3600083018462000d7b565b92915050565b60805161205562000dc5600039600061058f01526120556000f3fe608060405234801561001057600080fd5b50600436106101215760003560e01c806342966c68116100ad57806395d89b411161007157806395d89b41146102f8578063a457c2d714610316578063a9059cbb14610346578063dd62ed3e14610376578063f5537ede146103a657610121565b806342966c68146102685780635de24c671461028457806370a082311461028e57806379cc6790146102be5780638da5cb5b146102da57610121565b80631a18e707116100f45780631a18e707146101b057806323b872dd146101cc578063313ce567146101fc578063355274ea1461021a578063395093511461023857610121565b806306fdde0314610126578063095ea7b3146101445780630ac168a11461017457806318160ddd14610192575b600080fd5b61012e6103d6565b60405161013b91906113b5565b60405180910390f35b61015e60048036038101906101599190611470565b610468565b60405161016b91906114cb565b60405180910390f35b61017c61048b565b60405161018991906114f5565b60405180910390f35b61019a610491565b6040516101a791906114f5565b60405180910390f35b6101ca60048036038101906101c59190611510565b61049b565b005b6101e660048036038101906101e1919061153d565b610553565b6040516101f391906114cb565b60405180910390f35b610204610582565b60405161021191906115ac565b60405180910390f35b61022261058b565b60405161022f91906114f5565b60405180910390f35b610252600480360381019061024d9190611470565b6105b3565b60405161025f91906114cb565b60405180910390f35b610282600480360381019061027d9190611510565b6105ea565b005b61028c6105fe565b005b6102a860048036038101906102a391906115c7565b6106ba565b6040516102b591906114f5565b60405180910390f35b6102d860048036038101906102d39190611470565b610702565b005b6102e2610722565b6040516102ef9190611615565b60405180910390f35b610300610748565b60405161030d91906113b5565b60405180910390f35b610330600480360381019061032b9190611470565b6107da565b60405161033d91906114cb565b60405180910390f35b610360600480360381019061035b9190611470565b610851565b60405161036d91906114cb565b60405180910390f35b610390600480360381019061038b9190611630565b610874565b60405161039d91906114f5565b60405180910390f35b6103c060048036038101906103bb919061153d565b6108fb565b6040516103cd91906114cb565b60405180910390f35b6060600380546103e59061169f565b80601f01602080910402602001604051908101604052809291908181526020018280546104119061169f565b801561045e5780601f106104335761010080835404028352916020019161045e565b820191906000526020600020905b81548152906001019060200180831161044157829003601f168201915b5050505050905090565b600080610473610b36565b9050610480818585610b3e565b600191505092915050565b60065481565b6000600254905090565b600560009054906101000a900473ffffffffffffffffffffffffffffffffffffffff1673ffffffffffffffffffffffffffffffffffffffff163373ffffffffffffffffffffffffffffffffffffffff161461052b576040517f08c379a000000000000000000000000000000000000000000000000000000000815260040161052290611742565b60405180910390fd5b610533610582565b600a61053f91906118c4565b8161054a919061190f565b60068190555050565b60008061055e610b36565b905061056b858285610d07565b610576858585610d93565b60019150509392505050565b60006012905090565b60007f0000000000000000000000000000000000000000000000000000000000000000905090565b6000806105be610b36565b90506105df8185856105d08589610874565b6105da9190611951565b610b3e565b600191505092915050565b6105fb6105f5610b36565b82611012565b50565b600560009054906101000a900473ffffffffffffffffffffffffffffffffffffffff1673ffffffffffffffffffffffffffffffffffffffff163373ffffffffffffffffffffffffffffffffffffffff161461068e576040517f08c379a000000000000000000000000000000000000000000000000000000000815260040161068590611742565b60405180910390fd5b600760009054906101000a900460ff1615600760006101000a81548160ff021916908315150217905550565b60008060008373ffffffffffffffffffffffffffffffffffffffff1673ffffffffffffffffffffffffffffffffffffffff168152602001908152602001600020549050919050565b6107148261070e610b36565b83610d07565b61071e8282611012565b5050565b600560009054906101000a900473ffffffffffffffffffffffffffffffffffffffff1681565b6060600480546107579061169f565b80601f01602080910402602001604051908101604052809291908181526020018280546107839061169f565b80156107d05780601f106107a5576101008083540402835291602001916107d0565b820191906000526020600020905b8154815290600101906020018083116107b357829003601f168201915b5050505050905090565b6000806107e5610b36565b905060006107f38286610874565b905083811015610838576040517f08c379a000000000000000000000000000000000000000000000000000000000815260040161082f906119f7565b60405180910390fd5b6108458286868403610b3e565b60019250505092915050565b60008061085c610b36565b9050610869818585610d93565b600191505092915050565b6000600160008473ffffffffffffffffffffffffffffffffffffffff1673ffffffffffffffffffffffffffffffffffffffff16815260200190815260200160002060008373ffffffffffffffffffffffffffffffffffffffff1673ffffffffffffffffffffffffffffffffffffffff16815260200190815260200160002054905092915050565b6000801515600760009054906101000a900460ff16151514610952576040517f08c379a000000000000000000000000000000000000000000000000000000000815260040161094990611a89565b60405180910390fd5b61095d848484610d93565b600190509392505050565b61097061058b565b81610979610491565b6109839190611951565b11156109c4576040517f08c379a00000000000000000000000000000000000000000000000000000000081526004016109bb90611af5565b60405180910390fd5b6109ce82826109d2565b5050565b600073ffffffffffffffffffffffffffffffffffffffff168273ffffffffffffffffffffffffffffffffffffffff1603610a41576040517f08c379a0000000000000000000000000000000000000000000000000000000008152600401610a3890611b61565b60405180910390fd5b610a4d600083836111e8565b8060026000828254610a5f9190611951565b92505081905550806000808473ffffffffffffffffffffffffffffffffffffffff1673ffffffffffffffffffffffffffffffffffffffff1681526020019081526020016000206000828254610ab49190611951565b925050819055508173ffffffffffffffffffffffffffffffffffffffff16600073ffffffffffffffffffffffffffffffffffffffff167fddf252ad1be2c89b69c2b068fc378daa952ba7f163c4a11628f55a4df523b3ef83604051610b1991906114f5565b60405180910390a3610b2d600083836112a8565b5050565b505050565b600033905090565b600073ffffffffffffffffffffffffffffffffffffffff168373ffffffffffffffffffffffffffffffffffffffff1603610bad576040517f08c379a0000000000000000000000000000000000000000000000000000000008152600401610ba490611bf3565b60405180910390fd5b600073ffffffffffffffffffffffffffffffffffffffff168273ffffffffffffffffffffffffffffffffffffffff1603610c1c576040517f08c379a0000000000000000000000000000000000000000000000000000000008152600401610c1390611c85565b60405180910390fd5b80600160008573ffffffffffffffffffffffffffffffffffffffff1673ffffffffffffffffffffffffffffffffffffffff16815260200190815260200160002060008473ffffffffffffffffffffffffffffffffffffffff1673ffffffffffffffffffffffffffffffffffffffff168152602001908152602001600020819055508173ffffffffffffffffffffffffffffffffffffffff168373ffffffffffffffffffffffffffffffffffffffff167f8c5be1e5ebec7d5bd14f71427d1e84f3dd0314c0f7b2291e5b200ac8c7c3b92583604051610cfa91906114f5565b60405180910390a3505050565b6000610d138484610874565b90507fffffffffffffffffffffffffffffffffffffffffffffffffffffffffffffffff8114610d8d5781811015610d7f576040517f08c379a0000000000000000000000000000000000000000000000000000000008152600401610d7690611cf1565b60405180910390fd5b610d8c8484848403610b3e565b5b50505050565b600073ffffffffffffffffffffffffffffffffffffffff168373ffffffffffffffffffffffffffffffffffffffff1603610e02576040517f08c379a0000000000000000000000000000000000000000000000000000000008152600401610df990611d83565b60405180910390fd5b600073ffffffffffffffffffffffffffffffffffffffff168273ffffffffffffffffffffffffffffffffffffffff1603610e71576040517f08c379a0000000000000000000000000000000000000000000000000000000008152600401610e6890611e15565b60405180910390fd5b610e7c8383836111e8565b60008060008573ffffffffffffffffffffffffffffffffffffffff1673ffffffffffffffffffffffffffffffffffffffff16815260200190815260200160002054905081811015610f02576040517f08c379a0000000000000000000000000000000000000000000000000000000008152600401610ef990611ea7565b60405180910390fd5b8181036000808673ffffffffffffffffffffffffffffffffffffffff1673ffffffffffffffffffffffffffffffffffffffff16815260200190815260200160002081905550816000808573ffffffffffffffffffffffffffffffffffffffff1673ffffffffffffffffffffffffffffffffffffffff1681526020019081526020016000206000828254610f959190611951565b925050819055508273ffffffffffffffffffffffffffffffffffffffff168473ffffffffffffffffffffffffffffffffffffffff167fddf252ad1be2c89b69c2b068fc378daa952ba7f163c4a11628f55a4df523b3ef84604051610ff991906114f5565b60405180910390a361100c8484846112a8565b50505050565b600073ffffffffffffffffffffffffffffffffffffffff168273ffffffffffffffffffffffffffffffffffffffff1603611081576040517f08c379a000000000000000000000000000000000000000000000000000000000815260040161107890611f39565b60405180910390fd5b61108d826000836111e8565b60008060008473ffffffffffffffffffffffffffffffffffffffff1673ffffffffffffffffffffffffffffffffffffffff16815260200190815260200160002054905081811015611113576040517f08c379a000000000000000000000000000000000000000000000000000000000815260040161110a90611fcb565b60405180910390fd5b8181036000808573ffffffffffffffffffffffffffffffffffffffff1673ffffffffffffffffffffffffffffffffffffffff16815260200190815260200160002081905550816002600082825461116a9190611feb565b92505081905550600073ffffffffffffffffffffffffffffffffffffffff168373ffffffffffffffffffffffffffffffffffffffff167fddf252ad1be2c89b69c2b068fc378daa952ba7f163c4a11628f55a4df523b3ef846040516111cf91906114f5565b60405180910390a36111e3836000846112a8565b505050565b600073ffffffffffffffffffffffffffffffffffffffff168373ffffffffffffffffffffffffffffffffffffffff161415801561125157504173ffffffffffffffffffffffffffffffffffffffff168273ffffffffffffffffffffffffffffffffffffffff1614155b801561128a5750600073ffffffffffffffffffffffffffffffffffffffff164173ffffffffffffffffffffffffffffffffffffffff1614155b15611298576112976112ad565b5b6112a3838383610b31565b505050565b505050565b6112b9416006546112bb565b565b6112c361058b565b816112cc610491565b6112d69190611951565b1115611317576040517f08c379a000000000000000000000000000000000000000000000000000000000815260040161130e90611af5565b60405180910390fd5b6113218282610968565b5050565b600081519050919050565b600082825260208201905092915050565b60005b8381101561135f578082015181840152602081019050611344565b60008484015250505050565b6000601f19601f8301169050919050565b600061138782611325565b6113918185611330565b93506113a1818560208601611341565b6113aa8161136b565b840191505092915050565b600060208201905081810360008301526113cf818461137c565b905092915050565b600080fd5b600073ffffffffffffffffffffffffffffffffffffffff82169050919050565b6000611407826113dc565b9050919050565b611417816113fc565b811461142257600080fd5b50565b6000813590506114348161140e565b92915050565b6000819050919050565b61144d8161143a565b811461145857600080fd5b50565b60008135905061146a81611444565b92915050565b60008060408385031215611487576114866113d7565b5b600061149585828601611425565b92505060206114a68582860161145b565b9150509250929050565b60008115159050919050565b6114c5816114b0565b82525050565b60006020820190506114e060008301846114bc565b92915050565b6114ef8161143a565b82525050565b600060208201905061150a60008301846114e6565b92915050565b600060208284031215611526576115256113d7565b5b60006115348482850161145b565b91505092915050565b600080600060608486031215611556576115556113d7565b5b600061156486828701611425565b935050602061157586828701611425565b92505060406115868682870161145b565b9150509250925092565b600060ff82169050919050565b6115a681611590565b82525050565b60006020820190506115c1600083018461159d565b92915050565b6000602082840312156115dd576115dc6113d7565b5b60006115eb84828501611425565b91505092915050565b60006115ff826113dc565b9050919050565b61160f816115f4565b82525050565b600060208201905061162a6000830184611606565b92915050565b60008060408385031215611647576116466113d7565b5b600061165585828601611425565b925050602061166685828601611425565b9150509250929050565b7f4e487b7100000000000000000000000000000000000000000000000000000000600052602260045260246000fd5b600060028204905060018216806116b757607f821691505b6020821081036116ca576116c9611670565b5b50919050565b7f4f6e6c7920746865206f776e65722063616e2063616c6c20746869732066756e60008201527f6374696f6e000000000000000000000000000000000000000000000000000000602082015250565b600061172c602583611330565b9150611737826116d0565b604082019050919050565b6000602082019050818103600083015261175b8161171f565b9050919050565b7f4e487b7100000000000000000000000000000000000000000000000000000000600052601160045260246000fd5b60008160011c9050919050565b6000808291508390505b60018511156117e8578086048111156117c4576117c3611762565b5b60018516156117d35780820291505b80810290506117e185611791565b94506117a8565b94509492505050565b60008261180157600190506118bd565b8161180f57600090506118bd565b8160018114611825576002811461182f5761185e565b60019150506118bd565b60ff84111561184157611840611762565b5b8360020a91508482111561185857611857611762565b5b506118bd565b5060208310610133831016604e8410600b84101617156118935782820a90508381111561188e5761188d611762565b5b6118bd565b6118a0848484600161179e565b925090508184048111156118b7576118b6611762565b5b81810290505b9392505050565b60006118cf8261143a565b91506118da83611590565b92506119077fffffffffffffffffffffffffffffffffffffffffffffffffffffffffffffffff84846117f1565b905092915050565b600061191a8261143a565b91506119258361143a565b92508282026119338161143a565b9150828204841483151761194a57611949611762565b5b5092915050565b600061195c8261143a565b91506119678361143a565b925082820190508082111561197f5761197e611762565b5b92915050565b7f45524332303a2064656372656173656420616c6c6f77616e63652062656c6f7760008201527f207a65726f000000000000000000000000000000000000000000000000000000602082015250565b60006119e1602583611330565b91506119ec82611985565b604082019050919050565b60006020820190508181036000830152611a10816119d4565b9050919050565b7f546869732066756e6374696f6e206973206e6f7420616374697665206375727260008201527f656e746c79000000000000000000000000000000000000000000000000000000602082015250565b6000611a73602583611330565b9150611a7e82611a17565b604082019050919050565b60006020820190508181036000830152611aa281611a66565b9050919050565b7f45524332304361707065643a2063617020657863656564656400000000000000600082015250565b6000611adf601983611330565b9150611aea82611aa9565b602082019050919050565b60006020820190508181036000830152611b0e81611ad2565b9050919050565b7f45524332303a206d696e7420746f20746865207a65726f206164647265737300600082015250565b6000611b4b601f83611330565b9150611b5682611b15565b602082019050919050565b60006020820190508181036000830152611b7a81611b3e565b9050919050565b7f45524332303a20617070726f76652066726f6d20746865207a65726f2061646460008201527f7265737300000000000000000000000000000000000000000000000000000000602082015250565b6000611bdd602483611330565b9150611be882611b81565b604082019050919050565b60006020820190508181036000830152611c0c81611bd0565b9050919050565b7f45524332303a20617070726f766520746f20746865207a65726f20616464726560008201527f7373000000000000000000000000000000000000000000000000000000000000602082015250565b6000611c6f602283611330565b9150611c7a82611c13565b604082019050919050565b60006020820190508181036000830152611c9e81611c62565b9050919050565b7f45524332303a20696e73756666696369656e7420616c6c6f77616e6365000000600082015250565b6000611cdb601d83611330565b9150611ce682611ca5565b602082019050919050565b60006020820190508181036000830152611d0a81611cce565b9050919050565b7f45524332303a207472616e736665722066726f6d20746865207a65726f20616460008201527f6472657373000000000000000000000000000000000000000000000000000000602082015250565b6000611d6d602583611330565b9150611d7882611d11565b604082019050919050565b60006020820190508181036000830152611d9c81611d60565b9050919050565b7f45524332303a207472616e7366657220746f20746865207a65726f206164647260008201527f6573730000000000000000000000000000000000000000000000000000000000602082015250565b6000611dff602383611330565b9150611e0a82611da3565b604082019050919050565b60006020820190508181036000830152611e2e81611df2565b9050919050565b7f45524332303a207472616e7366657220616d6f756e742065786365656473206260008201527f616c616e63650000000000000000000000000000000000000000000000000000602082015250565b6000611e91602683611330565b9150611e9c82611e35565b604082019050919050565b60006020820190508181036000830152611ec081611e84565b9050919050565b7f45524332303a206275726e2066726f6d20746865207a65726f2061646472657360008201527f7300000000000000000000000000000000000000000000000000000000000000602082015250565b6000611f23602183611330565b9150611f2e82611ec7565b604082019050919050565b60006020820190508181036000830152611f5281611f16565b9050919050565b7f45524332303a206275726e20616d6f756e7420657863656564732062616c616e60008201527f6365000000000000000000000000000000000000000000000000000000000000602082015250565b6000611fb5602283611330565b9150611fc082611f59565b604082019050919050565b60006020820190508181036000830152611fe481611fa8565b9050919050565b6000611ff68261143a565b91506120018361143a565b925082820390508181111561201957612018611762565b5b9291505056fea264697066735822122045eebbec1b069802c3a652814a2b85b2dd6e9c0770776f2034e48381d3e63f7264736f6c63430008110033",
  "linkReferences": {},
  "deployedLinkReferences": {}
}