{
  "_format": "hh-sol-artifact-1",
  "contractName": "AxleSwap",
  "sourceName": "contracts/AxleSwap.sol",
  "abi": [
    {
      "inputs": [
        {
          "internalType": "address",
          "name": "_tokenAddress",
          "type": "address"
        },
        {
          "internalType": "uint256",
          "name": "_presaleEther",
          "type": "uint256"
        }
      ],
      "stateMutability": "nonpayable",
      "type": "constructor"
    },
    {
      "anonymous": false,
      "inputs": [
        {
          "indexed": true,
          "internalType": "bytes32",
          "name": "role",
          "type": "bytes32"
        },
        {
          "indexed": true,
          "internalType": "bytes32",
          "name": "previousAdminRole",
          "type": "bytes32"
        },
        {
          "indexed": true,
          "internalType": "bytes32",
          "name": "newAdminRole",
          "type": "bytes32"
        }
      ],
      "name": "RoleAdminChanged",
      "type": "event"
    },
    {
      "anonymous": false,
      "inputs": [
        {
          "indexed": true,
          "internalType": "bytes32",
          "name": "role",
          "type": "bytes32"
        },
        {
          "indexed": true,
          "internalType": "address",
          "name": "account",
          "type": "address"
        },
        {
          "indexed": true,
          "internalType": "address",
          "name": "sender",
          "type": "address"
        }
      ],
      "name": "RoleGranted",
      "type": "event"
    },
    {
      "anonymous": false,
      "inputs": [
        {
          "indexed": true,
          "internalType": "bytes32",
          "name": "role",
          "type": "bytes32"
        },
        {
          "indexed": true,
          "internalType": "address",
          "name": "account",
          "type": "address"
        },
        {
          "indexed": true,
          "internalType": "address",
          "name": "sender",
          "type": "address"
        }
      ],
      "name": "RoleRevoked",
      "type": "event"
    },
    {
      "inputs": [],
      "name": "DEFAULT_ADMIN_ROLE",
      "outputs": [
        {
          "internalType": "bytes32",
          "name": "",
          "type": "bytes32"
        }
      ],
      "stateMutability": "view",
      "type": "function"
    },
    {
      "inputs": [
        {
          "internalType": "uint256",
          "name": "amount",
          "type": "uint256"
        }
      ],
      "name": "calculateForPreSale",
      "outputs": [
        {
          "internalType": "uint256",
          "name": "",
          "type": "uint256"
        }
      ],
      "stateMutability": "payable",
      "type": "function"
    },
    {
      "inputs": [
        {
          "internalType": "uint256",
          "name": "amount",
          "type": "uint256"
        }
      ],
      "name": "calculateForPublicSale",
      "outputs": [
        {
          "internalType": "uint256",
          "name": "",
          "type": "uint256"
        }
      ],
      "stateMutability": "payable",
      "type": "function"
    },
    {
      "inputs": [
        {
          "internalType": "bytes32",
          "name": "role",
          "type": "bytes32"
        }
      ],
      "name": "getRoleAdmin",
      "outputs": [
        {
          "internalType": "bytes32",
          "name": "",
          "type": "bytes32"
        }
      ],
      "stateMutability": "view",
      "type": "function"
    },
    {
      "inputs": [
        {
          "internalType": "bytes32",
          "name": "role",
          "type": "bytes32"
        },
        {
          "internalType": "address",
          "name": "account",
          "type": "address"
        }
      ],
      "name": "grantRole",
      "outputs": [],
      "stateMutability": "nonpayable",
      "type": "function"
    },
    {
      "inputs": [
        {
          "internalType": "bytes32",
          "name": "role",
          "type": "bytes32"
        },
        {
          "internalType": "address",
          "name": "account",
          "type": "address"
        }
      ],
      "name": "hasRole",
      "outputs": [
        {
          "internalType": "bool",
          "name": "",
          "type": "bool"
        }
      ],
      "stateMutability": "view",
      "type": "function"
    },
    {
      "inputs": [
        {
          "internalType": "address payable",
          "name": "sender",
          "type": "address"
        }
      ],
      "name": "preSale",
      "outputs": [],
      "stateMutability": "payable",
      "type": "function"
    },
    {
      "inputs": [],
      "name": "presaleEther",
      "outputs": [
        {
          "internalType": "uint256",
          "name": "",
          "type": "uint256"
        }
      ],
      "stateMutability": "view",
      "type": "function"
    },
    {
      "inputs": [
        {
          "internalType": "address payable",
          "name": "sender",
          "type": "address"
        }
      ],
      "name": "publicSale",
      "outputs": [],
      "stateMutability": "payable",
      "type": "function"
    },
    {
      "inputs": [
        {
          "internalType": "bytes32",
          "name": "role",
          "type": "bytes32"
        },
        {
          "internalType": "address",
          "name": "account",
          "type": "address"
        }
      ],
      "name": "renounceRole",
      "outputs": [],
      "stateMutability": "nonpayable",
      "type": "function"
    },
    {
      "inputs": [
        {
          "internalType": "bytes32",
          "name": "role",
          "type": "bytes32"
        },
        {
          "internalType": "address",
          "name": "account",
          "type": "address"
        }
      ],
      "name": "revokeRole",
      "outputs": [],
      "stateMutability": "nonpayable",
      "type": "function"
    },
    {
      "inputs": [
        {
          "internalType": "bytes4",
          "name": "interfaceId",
          "type": "bytes4"
        }
      ],
      "name": "supportsInterface",
      "outputs": [
        {
          "internalType": "bool",
          "name": "",
          "type": "bool"
        }
      ],
      "stateMutability": "view",
      "type": "function"
    }
  ],
  "bytecode": "0x6080604052600160045560036005553480156200001b57600080fd5b50604051620017613803806200176183398181016040528101906200004191906200018e565b81600360006101000a81548173ffffffffffffffffffffffffffffffffffffffff021916908373ffffffffffffffffffffffffffffffffffffffff1602179055508060028190555062000099620000e160201b60201c565b600160006101000a81548173ffffffffffffffffffffffffffffffffffffffff021916908373ffffffffffffffffffffffffffffffffffffffff1602179055505050620001d5565b600033905090565b600080fd5b600073ffffffffffffffffffffffffffffffffffffffff82169050919050565b60006200011b82620000ee565b9050919050565b6200012d816200010e565b81146200013957600080fd5b50565b6000815190506200014d8162000122565b92915050565b6000819050919050565b620001688162000153565b81146200017457600080fd5b50565b60008151905062000188816200015d565b92915050565b60008060408385031215620001a857620001a7620000e9565b5b6000620001b8858286016200013c565b9250506020620001cb8582860162000177565b9150509250929050565b61157c80620001e56000396000f3fe6080604052600436106100a75760003560e01c80635b8b06eb116100645780635b8b06eb146101bf57806365f5dc7e146101ef57806391d148541461020b578063a217fddf14610248578063bcd1cb5014610273578063d547741f146102a3576100a7565b806301ffc9a7146100ac578063248a9ca3146100e95780632f2ff15d1461012657806336568abe1461014f57806339dab186146101785780634d0b69b714610194575b600080fd5b3480156100b857600080fd5b506100d360048036038101906100ce9190610d0c565b6102cc565b6040516100e09190610d54565b60405180910390f35b3480156100f557600080fd5b50610110600480360381019061010b9190610da5565b610346565b60405161011d9190610de1565b60405180910390f35b34801561013257600080fd5b5061014d60048036038101906101489190610e5a565b610365565b005b34801561015b57600080fd5b5061017660048036038101906101719190610e5a565b610386565b005b610192600480360381019061018d9190610ed8565b610409565b005b3480156101a057600080fd5b506101a9610559565b6040516101b69190610f1e565b60405180910390f35b6101d960048036038101906101d49190610f65565b61055f565b6040516101e69190610f1e565b60405180910390f35b61020960048036038101906102049190610ed8565b610586565b005b34801561021757600080fd5b50610232600480360381019061022d9190610e5a565b6106d6565b60405161023f9190610d54565b60405180910390f35b34801561025457600080fd5b5061025d610740565b60405161026a9190610de1565b60405180910390f35b61028d60048036038101906102889190610f65565b610747565b60405161029a9190610f1e565b60405180910390f35b3480156102af57600080fd5b506102ca60048036038101906102c59190610e5a565b61076e565b005b60007f7965db0b000000000000000000000000000000000000000000000000000000007bffffffffffffffffffffffffffffffffffffffffffffffffffffffff1916827bffffffffffffffffffffffffffffffffffffffffffffffffffffffff1916148061033f575061033e8261078f565b5b9050919050565b6000806000838152602001908152602001600020600101549050919050565b61036e82610346565b610377816107f9565b610381838361080d565b505050565b61038e6108ed565b73ffffffffffffffffffffffffffffffffffffffff168173ffffffffffffffffffffffffffffffffffffffff16146103fb576040517f08c379a00000000000000000000000000000000000000000000000000000000081526004016103f290611015565b60405180910390fd5b61040582826108f5565b5050565b600454341015801561041d57506005543411155b61045c576040517f08c379a000000000000000000000000000000000000000000000000000000000815260040161045390611081565b60405180910390fd5b8073ffffffffffffffffffffffffffffffffffffffff166108fc6002549081150290604051600060405180830381858888f193505050501580156104a4573d6000803e3d6000fd5b5060006104b03461055f565b9050600360009054906101000a900473ffffffffffffffffffffffffffffffffffffffff1673ffffffffffffffffffffffffffffffffffffffff1663f5537ede8333846040518463ffffffff1660e01b81526004016105119392919061110f565b6020604051808303816000875af1158015610530573d6000803e3d6000fd5b505050506040513d601f19601f820116820180604052508101906105549190611172565b505050565b60025481565b600080606460068461057191906111ce565b61057b919061123f565b905080915050919050565b600454341015801561059a57506005543411155b6105d9576040517f08c379a00000000000000000000000000000000000000000000000000000000081526004016105d090611081565b60405180910390fd5b8073ffffffffffffffffffffffffffffffffffffffff166108fc6002549081150290604051600060405180830381858888f19350505050158015610621573d6000803e3d6000fd5b50600061062d34610747565b9050600360009054906101000a900473ffffffffffffffffffffffffffffffffffffffff1673ffffffffffffffffffffffffffffffffffffffff1663f5537ede8333846040518463ffffffff1660e01b815260040161068e9392919061110f565b6020604051808303816000875af11580156106ad573d6000803e3d6000fd5b505050506040513d601f19601f820116820180604052508101906106d19190611172565b505050565b600080600084815260200190815260200160002060000160008373ffffffffffffffffffffffffffffffffffffffff1673ffffffffffffffffffffffffffffffffffffffff16815260200190815260200160002060009054906101000a900460ff16905092915050565b6000801b81565b6000806064600c8461075991906111ce565b610763919061123f565b905080915050919050565b61077782610346565b610780816107f9565b61078a83836108f5565b505050565b60007f01ffc9a7000000000000000000000000000000000000000000000000000000007bffffffffffffffffffffffffffffffffffffffffffffffffffffffff1916827bffffffffffffffffffffffffffffffffffffffffffffffffffffffff1916149050919050565b61080a816108056108ed565b6109d6565b50565b61081782826106d6565b6108e957600160008084815260200190815260200160002060000160008373ffffffffffffffffffffffffffffffffffffffff1673ffffffffffffffffffffffffffffffffffffffff16815260200190815260200160002060006101000a81548160ff02191690831515021790555061088e6108ed565b73ffffffffffffffffffffffffffffffffffffffff168173ffffffffffffffffffffffffffffffffffffffff16837f2f8788117e7eff1d82e926ec794901d17c78024a50270940304540a733656f0d60405160405180910390a45b5050565b600033905090565b6108ff82826106d6565b156109d257600080600084815260200190815260200160002060000160008373ffffffffffffffffffffffffffffffffffffffff1673ffffffffffffffffffffffffffffffffffffffff16815260200190815260200160002060006101000a81548160ff0219169083151502179055506109776108ed565b73ffffffffffffffffffffffffffffffffffffffff168173ffffffffffffffffffffffffffffffffffffffff16837ff6391f5c32d9c69d2a47ea670b442974b53935d1edc7fd64eb21e047a839171b60405160405180910390a45b5050565b6109e082826106d6565b610a6f57610a058173ffffffffffffffffffffffffffffffffffffffff166014610a73565b610a138360001c6020610a73565b604051602001610a24929190611379565b6040516020818303038152906040526040517f08c379a0000000000000000000000000000000000000000000000000000000008152600401610a6691906113fd565b60405180910390fd5b5050565b606060006002836002610a8691906111ce565b610a90919061141f565b67ffffffffffffffff811115610aa957610aa8611453565b5b6040519080825280601f01601f191660200182016040528015610adb5781602001600182028036833780820191505090505b5090507f300000000000000000000000000000000000000000000000000000000000000081600081518110610b1357610b12611482565b5b60200101907effffffffffffffffffffffffffffffffffffffffffffffffffffffffffffff1916908160001a9053507f780000000000000000000000000000000000000000000000000000000000000081600181518110610b7757610b76611482565b5b60200101907effffffffffffffffffffffffffffffffffffffffffffffffffffffffffffff1916908160001a90535060006001846002610bb791906111ce565b610bc1919061141f565b90505b6001811115610c61577f3031323334353637383961626364656600000000000000000000000000000000600f861660108110610c0357610c02611482565b5b1a60f81b828281518110610c1a57610c19611482565b5b60200101907effffffffffffffffffffffffffffffffffffffffffffffffffffffffffffff1916908160001a905350600485901c945080610c5a906114b1565b9050610bc4565b5060008414610ca5576040517f08c379a0000000000000000000000000000000000000000000000000000000008152600401610c9c90611526565b60405180910390fd5b8091505092915050565b600080fd5b60007fffffffff0000000000000000000000000000000000000000000000000000000082169050919050565b610ce981610cb4565b8114610cf457600080fd5b50565b600081359050610d0681610ce0565b92915050565b600060208284031215610d2257610d21610caf565b5b6000610d3084828501610cf7565b91505092915050565b60008115159050919050565b610d4e81610d39565b82525050565b6000602082019050610d696000830184610d45565b92915050565b6000819050919050565b610d8281610d6f565b8114610d8d57600080fd5b50565b600081359050610d9f81610d79565b92915050565b600060208284031215610dbb57610dba610caf565b5b6000610dc984828501610d90565b91505092915050565b610ddb81610d6f565b82525050565b6000602082019050610df66000830184610dd2565b92915050565b600073ffffffffffffffffffffffffffffffffffffffff82169050919050565b6000610e2782610dfc565b9050919050565b610e3781610e1c565b8114610e4257600080fd5b50565b600081359050610e5481610e2e565b92915050565b60008060408385031215610e7157610e70610caf565b5b6000610e7f85828601610d90565b9250506020610e9085828601610e45565b9150509250929050565b6000610ea582610dfc565b9050919050565b610eb581610e9a565b8114610ec057600080fd5b50565b600081359050610ed281610eac565b92915050565b600060208284031215610eee57610eed610caf565b5b6000610efc84828501610ec3565b91505092915050565b6000819050919050565b610f1881610f05565b82525050565b6000602082019050610f336000830184610f0f565b92915050565b610f4281610f05565b8114610f4d57600080fd5b50565b600081359050610f5f81610f39565b92915050565b600060208284031215610f7b57610f7a610caf565b5b6000610f8984828501610f50565b91505092915050565b600082825260208201905092915050565b7f416363657373436f6e74726f6c3a2063616e206f6e6c792072656e6f756e636560008201527f20726f6c657320666f722073656c660000000000000000000000000000000000602082015250565b6000610fff602f83610f92565b915061100a82610fa3565b604082019050919050565b6000602082019050818103600083015261102e81610ff2565b9050919050565b7f53656e742056616c7565206f66204574686572206973204e6f742056616c6964600082015250565b600061106b602083610f92565b915061107682611035565b602082019050919050565b6000602082019050818103600083015261109a8161105e565b9050919050565b6000819050919050565b60006110c66110c16110bc84610dfc565b6110a1565b610dfc565b9050919050565b60006110d8826110ab565b9050919050565b60006110ea826110cd565b9050919050565b6110fa816110df565b82525050565b61110981610e1c565b82525050565b600060608201905061112460008301866110f1565b6111316020830185611100565b61113e6040830184610f0f565b949350505050565b61114f81610d39565b811461115a57600080fd5b50565b60008151905061116c81611146565b92915050565b60006020828403121561118857611187610caf565b5b60006111968482850161115d565b91505092915050565b7f4e487b7100000000000000000000000000000000000000000000000000000000600052601160045260246000fd5b60006111d982610f05565b91506111e483610f05565b92508282026111f281610f05565b915082820484148315176112095761120861119f565b5b5092915050565b7f4e487b7100000000000000000000000000000000000000000000000000000000600052601260045260246000fd5b600061124a82610f05565b915061125583610f05565b92508261126557611264611210565b5b828204905092915050565b600081905092915050565b7f416363657373436f6e74726f6c3a206163636f756e7420000000000000000000600082015250565b60006112b1601783611270565b91506112bc8261127b565b601782019050919050565b600081519050919050565b60005b838110156112f05780820151818401526020810190506112d5565b60008484015250505050565b6000611307826112c7565b6113118185611270565b93506113218185602086016112d2565b80840191505092915050565b7f206973206d697373696e6720726f6c6520000000000000000000000000000000600082015250565b6000611363601183611270565b915061136e8261132d565b601182019050919050565b6000611384826112a4565b915061139082856112fc565b915061139b82611356565b91506113a782846112fc565b91508190509392505050565b6000601f19601f8301169050919050565b60006113cf826112c7565b6113d98185610f92565b93506113e98185602086016112d2565b6113f2816113b3565b840191505092915050565b6000602082019050818103600083015261141781846113c4565b905092915050565b600061142a82610f05565b915061143583610f05565b925082820190508082111561144d5761144c61119f565b5b92915050565b7f4e487b7100000000000000000000000000000000000000000000000000000000600052604160045260246000fd5b7f4e487b7100000000000000000000000000000000000000000000000000000000600052603260045260246000fd5b60006114bc82610f05565b9150600082036114cf576114ce61119f565b5b600182039050919050565b7f537472696e67733a20686578206c656e67746820696e73756666696369656e74600082015250565b6000611510602083610f92565b915061151b826114da565b602082019050919050565b6000602082019050818103600083015261153f81611503565b905091905056fea264697066735822122031b59a8f5243a7b1ce96b1ba6c9435da759ce9670e8aa76437187a721c078b9064736f6c63430008110033",
  "linkReferences": {},
  "deployedLinkReferences": {}
}