{
  "_format": "hh-sol-artifact-1",
  "contractName": "AxleSwap",
  "sourceName": "contracts/SwapToken.sol",
  "abi": [
    {
      "inputs": [
        {
          "internalType": "address",
          "name": "_tokenAddress",
          "type": "address"
        }
      ],
      "stateMutability": "nonpayable",
      "type": "constructor"
    },
    {
      "anonymous": false,
      "inputs": [
        {
          "indexed": true,
          "internalType": "bytes32",
          "name": "role",
          "type": "bytes32"
        },
        {
          "indexed": true,
          "internalType": "bytes32",
          "name": "previousAdminRole",
          "type": "bytes32"
        },
        {
          "indexed": true,
          "internalType": "bytes32",
          "name": "newAdminRole",
          "type": "bytes32"
        }
      ],
      "name": "RoleAdminChanged",
      "type": "event"
    },
    {
      "anonymous": false,
      "inputs": [
        {
          "indexed": true,
          "internalType": "bytes32",
          "name": "role",
          "type": "bytes32"
        },
        {
          "indexed": true,
          "internalType": "address",
          "name": "account",
          "type": "address"
        },
        {
          "indexed": true,
          "internalType": "address",
          "name": "sender",
          "type": "address"
        }
      ],
      "name": "RoleGranted",
      "type": "event"
    },
    {
      "anonymous": false,
      "inputs": [
        {
          "indexed": true,
          "internalType": "bytes32",
          "name": "role",
          "type": "bytes32"
        },
        {
          "indexed": true,
          "internalType": "address",
          "name": "account",
          "type": "address"
        },
        {
          "indexed": true,
          "internalType": "address",
          "name": "sender",
          "type": "address"
        }
      ],
      "name": "RoleRevoked",
      "type": "event"
    },
    {
      "inputs": [],
      "name": "DEFAULT_ADMIN_ROLE",
      "outputs": [
        {
          "internalType": "bytes32",
          "name": "",
          "type": "bytes32"
        }
      ],
      "stateMutability": "view",
      "type": "function"
    },
    {
      "inputs": [
        {
          "internalType": "uint256",
          "name": "amount",
          "type": "uint256"
        }
      ],
      "name": "calculateForPreSale",
      "outputs": [
        {
          "internalType": "uint256",
          "name": "",
          "type": "uint256"
        }
      ],
      "stateMutability": "payable",
      "type": "function"
    },
    {
      "inputs": [
        {
          "internalType": "uint256",
          "name": "amount",
          "type": "uint256"
        }
      ],
      "name": "calculateForPublicSale",
      "outputs": [
        {
          "internalType": "uint256",
          "name": "",
          "type": "uint256"
        }
      ],
      "stateMutability": "payable",
      "type": "function"
    },
    {
      "inputs": [
        {
          "internalType": "bytes32",
          "name": "role",
          "type": "bytes32"
        }
      ],
      "name": "getRoleAdmin",
      "outputs": [
        {
          "internalType": "bytes32",
          "name": "",
          "type": "bytes32"
        }
      ],
      "stateMutability": "view",
      "type": "function"
    },
    {
      "inputs": [
        {
          "internalType": "bytes32",
          "name": "role",
          "type": "bytes32"
        },
        {
          "internalType": "address",
          "name": "account",
          "type": "address"
        }
      ],
      "name": "grantRole",
      "outputs": [],
      "stateMutability": "nonpayable",
      "type": "function"
    },
    {
      "inputs": [
        {
          "internalType": "bytes32",
          "name": "role",
          "type": "bytes32"
        },
        {
          "internalType": "address",
          "name": "account",
          "type": "address"
        }
      ],
      "name": "hasRole",
      "outputs": [
        {
          "internalType": "bool",
          "name": "",
          "type": "bool"
        }
      ],
      "stateMutability": "view",
      "type": "function"
    },
    {
      "inputs": [],
      "name": "postsaleEther",
      "outputs": [
        {
          "internalType": "uint256",
          "name": "",
          "type": "uint256"
        }
      ],
      "stateMutability": "view",
      "type": "function"
    },
    {
      "inputs": [
        {
          "internalType": "address payable",
          "name": "sender",
          "type": "address"
        }
      ],
      "name": "preSale",
      "outputs": [],
      "stateMutability": "payable",
      "type": "function"
    },
    {
      "inputs": [],
      "name": "presaleEther",
      "outputs": [
        {
          "internalType": "uint256",
          "name": "",
          "type": "uint256"
        }
      ],
      "stateMutability": "view",
      "type": "function"
    },
    {
      "inputs": [
        {
          "internalType": "address payable",
          "name": "sender",
          "type": "address"
        }
      ],
      "name": "publicSale",
      "outputs": [],
      "stateMutability": "payable",
      "type": "function"
    },
    {
      "inputs": [
        {
          "internalType": "bytes32",
          "name": "role",
          "type": "bytes32"
        },
        {
          "internalType": "address",
          "name": "account",
          "type": "address"
        }
      ],
      "name": "renounceRole",
      "outputs": [],
      "stateMutability": "nonpayable",
      "type": "function"
    },
    {
      "inputs": [
        {
          "internalType": "bytes32",
          "name": "role",
          "type": "bytes32"
        },
        {
          "internalType": "address",
          "name": "account",
          "type": "address"
        }
      ],
      "name": "revokeRole",
      "outputs": [],
      "stateMutability": "nonpayable",
      "type": "function"
    },
    {
      "inputs": [
        {
          "internalType": "bytes4",
          "name": "interfaceId",
          "type": "bytes4"
        }
      ],
      "name": "supportsInterface",
      "outputs": [
        {
          "internalType": "bool",
          "name": "",
          "type": "bool"
        }
      ],
      "stateMutability": "view",
      "type": "function"
    }
  ],
  "bytecode": "0x6080604052600160055560036006553480156200001b57600080fd5b50604051620017553803806200175583398181016040528101906200004191906200014b565b80600160006101000a81548173ffffffffffffffffffffffffffffffffffffffff021916908373ffffffffffffffffffffffffffffffffffffffff16021790555062000092620000d960201b60201c565b600260006101000a81548173ffffffffffffffffffffffffffffffffffffffff021916908373ffffffffffffffffffffffffffffffffffffffff160217905550506200017d565b600033905090565b600080fd5b600073ffffffffffffffffffffffffffffffffffffffff82169050919050565b60006200011382620000e6565b9050919050565b620001258162000106565b81146200013157600080fd5b50565b60008151905062000145816200011a565b92915050565b600060208284031215620001645762000163620000e1565b5b6000620001748482850162000134565b91505092915050565b6115c8806200018d6000396000f3fe6080604052600436106100c25760003560e01c80635b8b06eb1161007f578063a217fddf11610059578063a217fddf14610263578063ba8788d71461028e578063bcd1cb50146102b9578063d547741f146102e9576100c2565b80635b8b06eb146101da57806365f5dc7e1461020a57806391d1485414610226576100c2565b806301ffc9a7146100c7578063248a9ca3146101045780632f2ff15d1461014157806336568abe1461016a57806339dab186146101935780634d0b69b7146101af575b600080fd5b3480156100d357600080fd5b506100ee60048036038101906100e99190610d58565b610312565b6040516100fb9190610da0565b60405180910390f35b34801561011057600080fd5b5061012b60048036038101906101269190610df1565b61038c565b6040516101389190610e2d565b60405180910390f35b34801561014d57600080fd5b5061016860048036038101906101639190610ea6565b6103ab565b005b34801561017657600080fd5b50610191600480360381019061018c9190610ea6565b6103cc565b005b6101ad60048036038101906101a89190610f24565b61044f565b005b3480156101bb57600080fd5b506101c461059f565b6040516101d19190610f6a565b60405180910390f35b6101f460048036038101906101ef9190610fb1565b6105a5565b6040516102019190610f6a565b60405180910390f35b610224600480360381019061021f9190610f24565b6105cc565b005b34801561023257600080fd5b5061024d60048036038101906102489190610ea6565b61071c565b60405161025a9190610da0565b60405180910390f35b34801561026f57600080fd5b50610278610786565b6040516102859190610e2d565b60405180910390f35b34801561029a57600080fd5b506102a361078d565b6040516102b09190610f6a565b60405180910390f35b6102d360048036038101906102ce9190610fb1565b610793565b6040516102e09190610f6a565b60405180910390f35b3480156102f557600080fd5b50610310600480360381019061030b9190610ea6565b6107ba565b005b60007f7965db0b000000000000000000000000000000000000000000000000000000007bffffffffffffffffffffffffffffffffffffffffffffffffffffffff1916827bffffffffffffffffffffffffffffffffffffffffffffffffffffffff191614806103855750610384826107db565b5b9050919050565b6000806000838152602001908152602001600020600101549050919050565b6103b48261038c565b6103bd81610845565b6103c78383610859565b505050565b6103d4610939565b73ffffffffffffffffffffffffffffffffffffffff168173ffffffffffffffffffffffffffffffffffffffff1614610441576040517f08c379a000000000000000000000000000000000000000000000000000000000815260040161043890611061565b60405180910390fd5b61044b8282610941565b5050565b600554341015801561046357506006543411155b6104a2576040517f08c379a0000000000000000000000000000000000000000000000000000000008152600401610499906110cd565b60405180910390fd5b8073ffffffffffffffffffffffffffffffffffffffff166108fc6003549081150290604051600060405180830381858888f193505050501580156104ea573d6000803e3d6000fd5b5060006104f6346105a5565b9050600160009054906101000a900473ffffffffffffffffffffffffffffffffffffffff1673ffffffffffffffffffffffffffffffffffffffff1663f5537ede8333846040518463ffffffff1660e01b81526004016105579392919061115b565b6020604051808303816000875af1158015610576573d6000803e3d6000fd5b505050506040513d601f19601f8201168201806040525081019061059a91906111be565b505050565b60035481565b60008060646006846105b7919061121a565b6105c1919061128b565b905080915050919050565b60055434101580156105e057506006543411155b61061f576040517f08c379a0000000000000000000000000000000000000000000000000000000008152600401610616906110cd565b60405180910390fd5b8073ffffffffffffffffffffffffffffffffffffffff166108fc6003549081150290604051600060405180830381858888f19350505050158015610667573d6000803e3d6000fd5b50600061067334610793565b9050600160009054906101000a900473ffffffffffffffffffffffffffffffffffffffff1673ffffffffffffffffffffffffffffffffffffffff1663f5537ede8333846040518463ffffffff1660e01b81526004016106d49392919061115b565b6020604051808303816000875af11580156106f3573d6000803e3d6000fd5b505050506040513d601f19601f8201168201806040525081019061071791906111be565b505050565b600080600084815260200190815260200160002060000160008373ffffffffffffffffffffffffffffffffffffffff1673ffffffffffffffffffffffffffffffffffffffff16815260200190815260200160002060009054906101000a900460ff16905092915050565b6000801b81565b60045481565b6000806064600c846107a5919061121a565b6107af919061128b565b905080915050919050565b6107c38261038c565b6107cc81610845565b6107d68383610941565b505050565b60007f01ffc9a7000000000000000000000000000000000000000000000000000000007bffffffffffffffffffffffffffffffffffffffffffffffffffffffff1916827bffffffffffffffffffffffffffffffffffffffffffffffffffffffff1916149050919050565b61085681610851610939565b610a22565b50565b610863828261071c565b61093557600160008084815260200190815260200160002060000160008373ffffffffffffffffffffffffffffffffffffffff1673ffffffffffffffffffffffffffffffffffffffff16815260200190815260200160002060006101000a81548160ff0219169083151502179055506108da610939565b73ffffffffffffffffffffffffffffffffffffffff168173ffffffffffffffffffffffffffffffffffffffff16837f2f8788117e7eff1d82e926ec794901d17c78024a50270940304540a733656f0d60405160405180910390a45b5050565b600033905090565b61094b828261071c565b15610a1e57600080600084815260200190815260200160002060000160008373ffffffffffffffffffffffffffffffffffffffff1673ffffffffffffffffffffffffffffffffffffffff16815260200190815260200160002060006101000a81548160ff0219169083151502179055506109c3610939565b73ffffffffffffffffffffffffffffffffffffffff168173ffffffffffffffffffffffffffffffffffffffff16837ff6391f5c32d9c69d2a47ea670b442974b53935d1edc7fd64eb21e047a839171b60405160405180910390a45b5050565b610a2c828261071c565b610abb57610a518173ffffffffffffffffffffffffffffffffffffffff166014610abf565b610a5f8360001c6020610abf565b604051602001610a709291906113c5565b6040516020818303038152906040526040517f08c379a0000000000000000000000000000000000000000000000000000000008152600401610ab29190611449565b60405180910390fd5b5050565b606060006002836002610ad2919061121a565b610adc919061146b565b67ffffffffffffffff811115610af557610af461149f565b5b6040519080825280601f01601f191660200182016040528015610b275781602001600182028036833780820191505090505b5090507f300000000000000000000000000000000000000000000000000000000000000081600081518110610b5f57610b5e6114ce565b5b60200101907effffffffffffffffffffffffffffffffffffffffffffffffffffffffffffff1916908160001a9053507f780000000000000000000000000000000000000000000000000000000000000081600181518110610bc357610bc26114ce565b5b60200101907effffffffffffffffffffffffffffffffffffffffffffffffffffffffffffff1916908160001a90535060006001846002610c03919061121a565b610c0d919061146b565b90505b6001811115610cad577f3031323334353637383961626364656600000000000000000000000000000000600f861660108110610c4f57610c4e6114ce565b5b1a60f81b828281518110610c6657610c656114ce565b5b60200101907effffffffffffffffffffffffffffffffffffffffffffffffffffffffffffff1916908160001a905350600485901c945080610ca6906114fd565b9050610c10565b5060008414610cf1576040517f08c379a0000000000000000000000000000000000000000000000000000000008152600401610ce890611572565b60405180910390fd5b8091505092915050565b600080fd5b60007fffffffff0000000000000000000000000000000000000000000000000000000082169050919050565b610d3581610d00565b8114610d4057600080fd5b50565b600081359050610d5281610d2c565b92915050565b600060208284031215610d6e57610d6d610cfb565b5b6000610d7c84828501610d43565b91505092915050565b60008115159050919050565b610d9a81610d85565b82525050565b6000602082019050610db56000830184610d91565b92915050565b6000819050919050565b610dce81610dbb565b8114610dd957600080fd5b50565b600081359050610deb81610dc5565b92915050565b600060208284031215610e0757610e06610cfb565b5b6000610e1584828501610ddc565b91505092915050565b610e2781610dbb565b82525050565b6000602082019050610e426000830184610e1e565b92915050565b600073ffffffffffffffffffffffffffffffffffffffff82169050919050565b6000610e7382610e48565b9050919050565b610e8381610e68565b8114610e8e57600080fd5b50565b600081359050610ea081610e7a565b92915050565b60008060408385031215610ebd57610ebc610cfb565b5b6000610ecb85828601610ddc565b9250506020610edc85828601610e91565b9150509250929050565b6000610ef182610e48565b9050919050565b610f0181610ee6565b8114610f0c57600080fd5b50565b600081359050610f1e81610ef8565b92915050565b600060208284031215610f3a57610f39610cfb565b5b6000610f4884828501610f0f565b91505092915050565b6000819050919050565b610f6481610f51565b82525050565b6000602082019050610f7f6000830184610f5b565b92915050565b610f8e81610f51565b8114610f9957600080fd5b50565b600081359050610fab81610f85565b92915050565b600060208284031215610fc757610fc6610cfb565b5b6000610fd584828501610f9c565b91505092915050565b600082825260208201905092915050565b7f416363657373436f6e74726f6c3a2063616e206f6e6c792072656e6f756e636560008201527f20726f6c657320666f722073656c660000000000000000000000000000000000602082015250565b600061104b602f83610fde565b915061105682610fef565b604082019050919050565b6000602082019050818103600083015261107a8161103e565b9050919050565b7f53656e742056616c7565206f66204574686572206973204e6f742056616c6964600082015250565b60006110b7602083610fde565b91506110c282611081565b602082019050919050565b600060208201905081810360008301526110e6816110aa565b9050919050565b6000819050919050565b600061111261110d61110884610e48565b6110ed565b610e48565b9050919050565b6000611124826110f7565b9050919050565b600061113682611119565b9050919050565b6111468161112b565b82525050565b61115581610e68565b82525050565b6000606082019050611170600083018661113d565b61117d602083018561114c565b61118a6040830184610f5b565b949350505050565b61119b81610d85565b81146111a657600080fd5b50565b6000815190506111b881611192565b92915050565b6000602082840312156111d4576111d3610cfb565b5b60006111e2848285016111a9565b91505092915050565b7f4e487b7100000000000000000000000000000000000000000000000000000000600052601160045260246000fd5b600061122582610f51565b915061123083610f51565b925082820261123e81610f51565b91508282048414831517611255576112546111eb565b5b5092915050565b7f4e487b7100000000000000000000000000000000000000000000000000000000600052601260045260246000fd5b600061129682610f51565b91506112a183610f51565b9250826112b1576112b061125c565b5b828204905092915050565b600081905092915050565b7f416363657373436f6e74726f6c3a206163636f756e7420000000000000000000600082015250565b60006112fd6017836112bc565b9150611308826112c7565b601782019050919050565b600081519050919050565b60005b8381101561133c578082015181840152602081019050611321565b60008484015250505050565b600061135382611313565b61135d81856112bc565b935061136d81856020860161131e565b80840191505092915050565b7f206973206d697373696e6720726f6c6520000000000000000000000000000000600082015250565b60006113af6011836112bc565b91506113ba82611379565b601182019050919050565b60006113d0826112f0565b91506113dc8285611348565b91506113e7826113a2565b91506113f38284611348565b91508190509392505050565b6000601f19601f8301169050919050565b600061141b82611313565b6114258185610fde565b935061143581856020860161131e565b61143e816113ff565b840191505092915050565b600060208201905081810360008301526114638184611410565b905092915050565b600061147682610f51565b915061148183610f51565b9250828201905080821115611499576114986111eb565b5b92915050565b7f4e487b7100000000000000000000000000000000000000000000000000000000600052604160045260246000fd5b7f4e487b7100000000000000000000000000000000000000000000000000000000600052603260045260246000fd5b600061150882610f51565b91506000820361151b5761151a6111eb565b5b600182039050919050565b7f537472696e67733a20686578206c656e67746820696e73756666696369656e74600082015250565b600061155c602083610fde565b915061156782611526565b602082019050919050565b6000602082019050818103600083015261158b8161154f565b905091905056fea2646970667358221220486fc425c6ce2cb3061d081fa2b228e650239fd08dfaa6398136ca08c5e00ad764736f6c63430008110033",
  "linkReferences": {},
  "deployedLinkReferences": {}
}